:020000040800F2
:10000000206E00242104000869E70008D9DD0008FB
:1000100061E7000851250008D9050108000000002B
:1000200000000000000000000000000091ED00084A
:100030000930000800000000E1E70008F1ED0008C9
:100040003F0400083F0400083F0400083F04000884
:100050003F0400083F0400083F0400083F04000874
:100060003F0400083F0400083F0400085925000829
:1000700069250008792500083F0400083F040008AE
:100080003F0400083F040008312500083F04000831
:100090003F0400083F0400083F0400083F04000834
:1000A0003F0400083F0400083F0400083F04000824
:1000B0003F04000871F000083F0400083F040008F6
:1000C0003F0400083F0400083F0400083F04000804
:1000D0003F040008C90501083F0400083F04000868
:1000E0003F0400083F040008000000003F0400082F
:1000F0003F0400083F0400083F0400083F040008D4
:100100003F0400083F0400083F0400083F040008C3
:100110003F0400083F0400083F0400083F040008B3
:100120003F0400083F0400083F0400083F040008A3
:100130003F0400083F0400083F0400083F04000893
:1001400000000000000000000000000000000000AF
:100150003F0400083F0400083F0400083F04000873
:100160003F0400083F0400083F0400083F04000863
:100170003F0400083F0400083F040008000000009E
:100180003F0400083F0400083F0400083F04000843
:100190003F0400083F0400083F0400083F04000833
:1001A0003F0400083F0400083F0400083F04000823
:1001B0003F0400083F0400083F0400083F04000813
:1001C0003F0400083F0400083F0400083F04000803
:1001D0003F0400083F0400083F0400083F040008F3
:1001E0003F0400083F0400083F0400083F040008E3
:1001F0003F0400083F0400083F0400083F040008D3
:100200003F0400083F0400083F0400083F040008C2
:100210003F0400083F0400083F0400083F040008B2
:100220003F0400083F0400083F04000800000000ED
:100230003F0400083F040008000000003F040008DD
:100240003F0400083F0400083F0400083F04000882
:100250003F0400083F0400083F0400083F04000872
:100260003F0400083F0400083F0400083F04000862
:100270003F0400083F0400083F040008000000009D
:100280003F0400083F0400083F040008000000008D
:10029000000000003F04000800F002F800F0B0F891
:1002A00014A696E8000CB244B344DA4501D100F03C
:1002B000A7F8BAE80F000FA696E83000A5EB0405F2
:1002C00004EB0607AAEB0704A7F101074FEA15158F
:1002D0004FEA3414A4F10104AC4201D300F090F8C9
:1002E00013F0010F18BFFB1A43F0010300F001F8EF
:1002F000DBE718475087020070870200103A24BFDE
:1003000078C878C1FAD8520724BF30C830C144BF7A
:1003100004680C6070470000704700000023002450
:1003200000250026103A28BF78C1FBD8520728BF05
:1003300030C148BF0B6070476E2900F045827029BC
:1003400000F07B83662913F05880652913F05580EF
:10035000672913F05280612913F0518003681B0A4A
:1003600028BF41F08001692900F0F281642900F082
:10037000EF81752900F0EC816F2900F0098378295D
:1003800000F04783E92900F0A382E42900F0A0826D
:10039000F52900F09D82EF2900F00683F82900F08E
:1003A00046830368DB0928BF41F08001632901F01F
:1003B0006380732901F06880E32901F07380F329D9
:1003C00001F07880002070471FB513F009F89DE810
:1003D000030001F069FB01F067F90400002000212F
:1003E00012F0E8FF401C60600020002112F0CCFFFA
:1003F000E06001F067F81FBD10B501F0CCF810BD4A
:1004000001F024F91146FFF7DFFF12F041FA01F085
:10041000EBFA03B4FFF7F0FF03BC01F0C3FC0000EC
:100420000A4880470A4880470A480047FEE7FEE737
:10043000FEE7FEE7FEE7FEE7FEE7FEE7FEE7FEE794
:1004400005480649064A074B70470000213000085E
:10045000E1EE00089902000820680024206E0024C4
:10046000206A0024206A002453EA020C00F069800C
:100470002DE9F04B4FF00006002B1FBFB3FA83F5B8
:1004800003FA05F424FA05F65E4012BF1643B2FAE9
:1004900082F502FA05F4C5F120051EBF22FA05FC1B
:1004A00044EA0C04203556EA044C4FEA144418BFC1
:1004B000641C4FF000084FF00009904271EB030CF0
:1004C00039D3002919BFB1FA81F701FA07F6B0FA5A
:1004D00080F700FA07F6C7F120071EBF20FA07FCD5
:1004E00046EA0C062037B6FBF4FCA7EB0507103FE5
:1004F00007F01F0BCBF120062CFA06F60CFA0BFBCB
:1005000044BFB3460026202FA4BF5E464FF0000B29
:100510005BEA060C08BF4FF0010B19EB0B0948EB27
:100520000608ABFB027C06FB02CC0BFB03CCC01B1A
:1005300071EB0C01C1E70B46024641464846BDE857
:10054000F08B13B5084318BF4FF0FF300146AFF3EF
:100550000080BDE81C4070470FB4044910B503AAE1
:10056000029800F045F910BC5DF814FB74000024FB
:100570004FF000020429C0F0128010F0030C00F0CC
:100580001B80CCF1040CBCF1020F18BF00F8012B4A
:10059000A8BF20F8022BA1EB0C0100F00DB85FEA18
:1005A000C17C24BF00F8012B00F8012B48BF00F8E4
:1005B000012B70474FF0000200B513469446964653
:1005C000203922BFA0E80C50A0E80C50B1F1200166
:1005D000BFF4F7AF090728BFA0E80C5048BF0CC014
:1005E0005DF804EB890028BF40F8042B08BF704772
:1005F00048BF20F8022B11F0804F18BF00F8012BE4
:10060000704700000000000030B44FF0013C50F88B
:10061000042BCCFA52F451F8043BD51A20D1FCB982
:1006200050F8042BCCFA52F451F8043BD51A17D1E8
:10063000B4B950F8042BCCFA52F451F8043BD51A53
:100640000ED16CB950F8042BCCFA52F451F8043B9B
:10065000D51A05D1002CDAD030BC4FF0000070471D
:1006600029BAB1FA81F111F01801D1F120008440CA
:10067000F2D1CA40CB4012F0FF0213F0FF0330BCAE
:10068000D01A704770477047704770B50446856947
:100690000068C10601D5302600E02026C00707D03B
:1006A00070BDD4E9012130469047206A401C206289
:1006B0006D1EF6D570BD70B5044685690078C0071B
:1006C00007D170BDD4E9012120209047206A401C49
:1006D00020626D1EF6D570BD09684A0501D540B28D
:1006E0007047C905FCD500B2704709684A0501D5B5
:1006F000C0B27047C905FCD580B2704770B50C46D2
:100700000546012A05D02878800600D5EA6900232D
:1007100002E0012305E05B1C934202D2E05C00286A
:10072000F9D1A869E618C01AA861286A1844286295
:100730002846FFF7AAFF04E0D5E9012114F8010BD0
:100740009047B442F8D32846FFF7B5FF70BD0000CC
:100750002DE9F0410646002410687529314616A59A
:1007600010D0FFF7B9FF002802DA404213A507E0D6
:1007700031688A0701D512A502E0490704D511A501
:10078000012401E0FFF7B1FF00210A2206F124074E
:1007900009E0B0FBF2FCB0FBF2F302FB1C003030CE
:1007A00078541846491C0028F3D123462A4630467F
:1007B000BDE8F04100F059BA000000002D00000033
:1007C0002B0000002000000011680268006A530539
:1007D00001D508700AE0D30501D5088006E01306AC
:1007E00003D5C217C1E9000200E00860012070478C
:1007F000074B70B50D467B4400F021FE04462846A9
:1008000000F05CFE10B14FF0FF3070BD204670BDAF
:10081000772001002DE9FF5F15468A460446DFF880
:10082000AC80F8440027D8E900103E46CDE900101E
:1008300010E03AF816106A4602A800F0DFFE411CEC
:1008400007D02178890603D5E269391891420DD87D
:100850000744761C2078800602D5E069B84205DDA1
:10086000AE42E6DB3AF816000028E2D1A069C01BD0
:10087000A0612046FFF709FFD8E90010CDE900107C
:10088000002017E03AF818106A4602A800F0B6FEF9
:10089000B0F1FF3F81460BD000250DF1080B05E0BC
:1008A000D4E901211BF8050090476D1C4D45F7D395
:1008B00008F10100B0428046E4DB206A384420623F
:1008C0002046FFF7F8FEBDE8FF9F0000DE2B010089
:1008D0002DE9F0418046D21D22F007020025D2E921
:1008E0000002F52915A614D0011E72F1000106DAE6
:1008F0000023D0EB030063EB020211A608E0D8F856
:1009000000108B0701D50FA602E0490701D50EA6FE
:1009100001251146002408F1240704E000F060F9E5
:1009200030323A55641C50EA0102F7D12B46324668
:1009300021464046BDE8F04100F097B900000000B4
:100940002D0000002B0000002000000030B400212A
:1009500000F1240408E002F00705D208303542EA2D
:100960004372DB086554491C52EA0305F3D104685D
:10097000002310A2250708D504F020040C4304D05E
:10098000C46901230CA2641EC46130BC00F06DB9BF
:1009900010B5044621461068FFF7A7FE0246204620
:1009A000BDE810400023D1E7D21D22F00701D1E9B4
:1009B0000023CBE70000000030000000F0B40D463B
:1009C0000188090502D5214C7C4402E01F4C7C447F
:1009D0000E34002100F1240608E002F00F0712098E
:1009E000E75D42EA03721B097754491C52EA030788
:1009F000F3D102780023120704D5702D06D009B177
:100A0000022311342246F0BC00F02FB90123103428
:100A1000F8E770B504460D4621461068FFF765FEFD
:100A2000024629462046BDE870400023C6E7D21D95
:100A300022F00703D3E90023C0E70368126843F0FC
:100A4000200303600823C3610023B7E7402A0100A5
:100A50002DE9F05F894604464FF0000ADFF874B1D3
:100A6000FB44C0F820A02046E1688847002874D0E5
:100A7000252806D0D4E901219047206A401C206235
:100A8000F1E700265F462046E168884720280546B2
:100A900007DB312D05D2781910F8200C08B1064378
:100AA000F1E7B00701D526F00406C4F81CA0002722
:100AB000C4F818A02A2D09D0284612F05DFC38B3DE
:100AC00004EB8708303DC8F8185019E059F8041BAA
:100AD000204604EB87029161E1688847012F0546B3
:100AE00018D1E069002820DA26F020061DE0D8F8A9
:100AF000180000EB800005EB40003038C8F8180003
:100B00002046E1688847054612F036FC0028EED101
:100B1000012F0AD02E2D08D12046E16888477F1C7E
:100B20000546022F46F02006C4DBA069002803DA40
:100B3000404246F00106A061F00701D026F0100601
:100B40006C2D0BD0682D09D04C2D39D06A2D35D0A5
:100B5000742D35D07A2D33D016E038E0E1682F4679
:100B600020468847B842054609D16C2F26D04FF45D
:100B70008060E168064320468847054604E06C2F04
:100B80001AD04FF4807006430DB3A5F14100192827
:100B900002D8203546F400664A462946204626609B
:100BA0004E46FFF7C9FB80B101280BD0F61D26F099
:100BB000070000F1080956E74020E4E78020D8E765
:100BC0000020D6E706F104094DE7284652E7206ADF
:100BD000BDE8F09FD0290100004870471C010024A7
:100BE00030B5B0F10A0271F100034FEA900E4EEAFF
:100BF000817EB0EB0E0061EB91014FEA101E4EEAD0
:100C0000017E10EB0E0041EB11114FEA102E4EEA5F
:100C1000016E10EB0E0041EB11214FEA104E4EEA2F
:100C2000014E10EB0E0041EB1141401841F1000163
:100C30004FEAD00040EA41704FEAD1014FEA810407
:100C400044EA907410EB800544EB01046D1944EB09
:100C50000404521BA3414FF0000348BF0A3200D5E1
:100C600030BD401C41F1000130BD2DE9F0470D467B
:100C700099469246044600F124080168880604D586
:100C8000E06921F01001216000E00120A84201DDAF
:100C9000471B00E00027A1697A1902EB0900081A36
:100CA000A0612078C00602D42046FFF7EEFC0026A3
:100CB00008E0D4E901211AF806009047206A401C98
:100CC000761C20624E45F4DB2078C0060AD520460B
:100CD000FFF7DBFC06E0D4E9012130209047206AD1
:100CE000401C2062381EA7F10107F4DC07E0D4E9BC
:100CF000012118F805009047206A401C2062281E38
:100D0000A5F10105F3DC2046FFF7D5FC20780006AD
:100D100002D50220BDE8F0870120FBE72DE9FF4F57
:100D20000C461E464FF0FF378BB0D2E90001DDF8CC
:100D300060800A908A46C1F30A5505B93D460021F4
:100D400008464FF00000BAF1000F00F4400005DA49
:100D500000EB80004FF4400101EA50004FEA905947
:100D6000B9F1010F00DDB9460A9850EA4A000ED0E9
:100D700044F61050A5F2FF3545432F14B8F1000F8B
:100D80001ED07542291E1EDDC9F100021CE0B8F11B
:100D9000010F4FF0000001D0302103E0F24305E0E5
:100DA0002154401CB042FBDB30460022002121547C
:100DB0000B99C1F80880C1E900200FB0BDE8F08FA1
:100DC000BD1B6D1CDEE74A4600DA694206A800F04A
:100DD000D7FC06AB93E8070003AB83E80700504657
:100DE0000A9911F0E9FE8DE80700A0F500501F38C0
:100DF00000900398002D0ADD42F21F014A46084484
:100E0000002303A90390684612F052F909E0A0F507
:100E100000504A461F38002303A90390684612F089
:100E20005CF98DE807000004000C03D04FF0FF30A0
:100E3000410800E01046B8F1000F03D000220092F4
:100E400015461EE0751E05D4FFF7CAFE3032625506
:100E50006D1EF9D5B3460122084302D000227F1C43
:100E600004E02078302801D100227F1E002A099753
:100E700084D01DE0112D07DAFFF7B2FE3032625543
:100E80006D1C50EA0102F5D1084302D00098C8B1A8
:100E90000EE00021681E05E0235C625C635422546E
:100EA000401E491C8142F7DBAB46A81B401E09903F
:100EB000002004F80B000B98099AC0F80880C0E9DC
:100EC000002B7AE711264FF0000857E72DE9F04F85
:100ED00088460446D21D22F0070191B0D1E90001F5
:100EE000CDE90A0112F030FA02460B98C00F01D08A
:100EF0002D2007E02068810701D52B2002E020216A
:100F000001EAC000032A099001D0072A05DB034645
:100F10004146204600F0F4FB0BE12078800601D525
:100F2000E06900E00620B8F1650F814606D0B8F10F
:100F3000660F18D0B8F1670F70D131E00020B9F119
:100F4000110F009001DB112301E009F101030AAA4E
:100F500001A90CA8FFF7E2FEDDE90C70002609F1FB
:100F60000105834647E001204B4600904FF00047C3
:100F70000AAA01A90CA8FFF7D1FEDDE90DB00C9972
:100F80005D46002610B909F101000D18B9EB050006
:100F900003D4C0F1FF3609F10105A5EB09002BE0F0
:100FA000B9F1010F01DA4FF001090020B9F1110F79
:100FB0000090484601DD112300E003460AAA01A97A
:100FC0000CA8FFF7ABFEDDE90C704D46002683460A
:100FD000207800070AD4AB4500DA5D4601A8012D50
:100FE00004DD411911F8011C302907D04F4502DA00
:100FF00017F1040F04DA012082460FE06D1EEEE7C0
:10100000002F02DCED1B3E4403E0781CA84200DD0B
:101010007D1CB81B00F1010A4FF000472078000743
:1010200003D4AA4501DB4FF0FF3A0021B7F1004F8E
:101030000DF143088DF8431024D002202B23002FFC
:1010400001DA7F422D230A21021EA0F1010000DCFB
:101050005FB197FBF1FC97FBF1F201FB1C7C17469B
:101060000CF1300C08F801CDEEE7A8F10100037097
:101070002188090501D5452100E06521A0F101087D
:1010800000F8011C09980FA9A1EB0807FF1D00B18A
:101090000120411901EBEA70A1693844081A401E89
:1010A000A0612078C00602D42046FFF7EEFA099826
:1010B00028B1D4E901219047206A401C20622078A1
:1010C000C00622D52046FFF7E0FA1EE0002E04DB22
:1010D000B34502DD01A8805D00E03020D4E90121A4
:1010E0009047206A401C2062761CAAF101005FEA4A
:1010F000000A0AD100F0D8FAC0680168405CD4E95F
:1011000001219047206A401C2062281EA5F101059C
:10111000DCDC07E0D4E9012118F8010B9047206AD4
:10112000401C2062381EA7F10107F3DC2046FFF7C0
:10113000C2FA032011B041E62DE9F04F04460D46F6
:10114000D21D22F0070089B0D0E900974846394601
:1011500012F0FAF80246F80F01D02D2307E02068BC
:10116000810701D52B2302E0202101EAC0038DF87D
:1011700020300BB1012000E00020032A824601D07C
:10118000072A04DB2946204600F0BAFA3FE120781E
:10119000800601D40D2500E0E569C7F30A560D2D40
:1011A00049DA00214FEA175B08464FF00000002F94
:1011B00000F4400007DA00EB80004FF4400100EB40
:1011C000D07001EA60008115012901DD4FF0FF3187
:1011D00000224FEA850CBCF1180F06D31346ACF180
:1011E00018004FF08052C24003E04FF4801323FAFE
:1011F0000CF30CF10C0CBCF1200F04D3ACF1200C5F
:1012000009FA0CF001E007FA0CF000294FF0004851
:1012100001DD18B90FE00ED140450CD319EB0209DE
:101220005F4121B9404502D19F4329EA0209BBEB46
:10123000175F00D0761C2088000502D57B487844D3
:1012400002E07A487844193808AA302302F80A30B4
:10125000037C0AF10101002E0AF1020A53546A4686
:1012600002DC4FF0300101E04FF031014FF0010896
:101270008DF8001002D0A6F2FF3603E059EA4701CC
:1012800000D06B4E002D02DC2178090704D54FF009
:1012900002082E218DF80110C44600210BE0C7F38F
:1012A00003433F01C35C491C6D1E02F80830052949
:1012B00008F1010801DA002DF1DC00210CE000EB5F
:1012C0001973491C1B786D1E082902F808304FEA73
:1012D000091908F1010801DA002DF0DC21688B06FC
:1012E00002D516E0A8F10108E04505DD02EB080390
:1012F00013F8013C302BF5D0B8F1000F09DD02EBFB
:10130000080313F8013C2E2B03D1090701D4A8F1DF
:101310000108002D05DD3E2102F808106D1E08F1C0
:101320000108407C002E02F8080008F1010804DAE8
:101330002D20764202F8080002E02B2002F8080077
:101340000A214FF47A70864208F101080BDB96FB04
:10135000F0F3303302F8083096FBF0F308F101089F
:1013600000FB136601E0642E0CDB642096FBF0F3B7
:10137000303302F8083096FBF0F308F1010800FB67
:10138000136601E00A2E06DB96FBF1F0303002F81E
:10139000080008F1010896FBF1F001FB1060303005
:1013A00002F80800A16908F1010808EB050202EB48
:1013B0000A00081AA0612078C00602D42046FFF770
:1013C00064F9216A08AE01EB0A00206204E0D4E966
:1013D000012116F8010B9047BAF1010AF7D22078E3
:1013E000C00602D52046FFF750F96E4609E016F810
:1013F000010B3E280FD0D4E901219047206A401C00
:101400002062B8F10108F2D22046FFF754F909B082
:101410000320BDE8F08F206A2844206203E0D4E96D
:101420000121302090476D1EEBD3F8E71622010012
:1014300002FCFFFF01694A1C02610878704700B591
:101440008FB0CDE901310021059105497944CDE9FD
:10145000031011466846FFF7FBFA0FB000BD00000D
:10146000E5FFFFFF10B5436913B1AFF3008001E062
:10147000FFF744F9012010BD127800F124010A7031
:1014800000224A700122EDE711684FF0FF32E9E7D0
:1014900010B5436913B1AFF3008001E0FFF7BAF96B
:1014A000012010BD128800F1240182840022C28430
:1014B0000122EDE711684FF0FF32E9E7007B00F011
:1014C0008000704710B542485421FFF773F8414837
:1014D0005421FFF76FF840485421FFF76BF83F495C
:1014E0003B483C4A3F4B08603D490A603A49196015
:1014F000531C0365481C1065012008653B48344AAD
:1015000039A1784400F0D2F920B9384878440A3833
:1015100000F073FA37482F4A35A1784400F0C6F935
:1015200020B9344878440A3800F067FA32482A4A29
:101530002FA1784400F0BAF920B92F4878440A382E
:1015400000F05BFA40232248DC000021224600F034
:1015500089F920B125487844543800F04EFA1D48E6
:1015600022464023002100F07DF920B12148784433
:10157000543800F042FA184822461023002100F0A7
:1015800071F9002806D01C487844BDE81040563850
:1015900000F033BA10BD104870B5006D20F00104A2
:1015A0000B4800F0FBF90B4800F0F8F90A4800F08E
:1015B000F5F909E0206D20F00105204600F0EEF974
:1015C000204600F075F82C46002CF3D170BD0000C9
:1015D0002000002474000024C8000024000000241F
:1015E000040000240800002472000000651F0100B0
:1015F00077000000511F01003D1F01002DE9F0415F
:1016000016460C46054600F047F8036893F80101BA
:10161000012807D0FF2C12D8185D80B101202C7052
:10162000BDE8F081D3F807013246214603F20713E3
:10163000C7182846BC46BDE8F041002360474FF07C
:10164000FF30EDE7004870471C0100247546FFF7A6
:10165000F9FFAE4605006946534620F0070085466F
:1016600018B020B5FEF7ECFEBDE820404FF00006B4
:101670004FF000074FF000084FF0000BAC46ACE80D
:10168000C009ACE8C009ACE8C009ACE8C00921F069
:1016900007018D467047000010B500F005F8001DE9
:1016A00010BD00BF111D0100004870473C0100241F
:1016B00070B50446051F00F0DBF90068002C14BF6C
:1016C000446870BD002C18BFAC423CBF2046646823
:1016D000F8D301680A18AA4218BF456003D12A68E6
:1016E00005461144016028684119A1421CBF6C6085
:1016F00070BD6168696021680844286070BD0000A1
:101700002DE9F0411F46044603260168072A01F42B
:10171000006004DB08B116A505E016A503E008B1DA
:1017200015A500E015A521F010002060A069C01EDD
:10173000A0610FB1401EA0612046FEF7A6FF4FB189
:10174000D4E9012138469047206A401C2062C01C21
:10175000206206E0206AFAE7D4E9012115F8010BBE
:101760009047761EF8D22046FEF7A5FFBDE8F0812F
:101770004E414E006E616E00494E4600696E660035
:101780002DE9F047814616468AB0354878440DC8A1
:101790008DE80D0032487844801C03AC0DC884E805
:1017A0000D0041F69B300844372190FBF1F290FB8D
:1017B000F1F5A5F1800501FB12041B3C02D5644242
:1017C000012000E00020DFF898A080460027FA44BE
:1017D000AAF1BE0A0EE0E0070AD03246684607EBDF
:1017E000470101230AEB810111F077FC8DE8070026
:1017F00064107F1C002CEED1194F7F44AE3F19E0DE
:10180000E80715D007EB04100DF1180A90E80E0058
:101810008AE80E00C068F04201D19819089032465B
:10182000012306A903A811F058FC03AB83E80700C5
:101830006D10641C002DE3D14FF001033246694660
:10184000B8F1000F03A802D011F032FC01E011F052
:1018500044FCC9E90001C9F808200AB0BDE8F087D6
:10186000641D010070B5C468A50713D0650211D4CA
:10187000B2F5807F09D0B2F5007F06D0B2F5806F57
:1018800008D1012300F1240106E05D1E6FF07F46C0
:10189000B54201D3012070BD0161C361416024F4F0
:1018A00070611143C160002070BD00002DE9F0415E
:1018B0000C461646070047D0104600F06FF8207817
:1018C000611C61280AD0722802D077283CD102E03E
:1018D0000125002405E00225042402E0082448F242
:1018E000020511F8010B2B2806D0622809D011F847
:1018F000010C74280AD00BE045F0030544F0020403
:10190000EFE745F0040544F00104EAE744F0100471
:101910003846214600F078F8411C15D0002131618D
:1019200071604FF40071F560F1617061200704D5BA
:1019300030460222002100F015F9306D40F0010020
:1019400030653046BDE8F0810020FBE72DE9F0412D
:101950000D460646104C206DC10704D0410804D046
:1019600020F00104F7E722460EE0542000F0CBF807
:1019700007000ED0206D47F0010108435421206577
:101980003846FEF717FE3A4629463046BDE8F04194
:101990008CE70020D6E70000200000242DE9F04766
:1019A00004464FF0FF380026C568D4E90497A8071D
:1019B00018D0204600F092F9384600F02FF80028A1
:1019C00000DA4646280502D54846FFF771FE4C214D
:1019D0002046FEF7EFFD206D20F001002065304627
:1019E000BDE8F0874046FBE710B50446AFF3008042
:1019F0002046BDE81040FEF70CBD10B500F0B8F968
:101A0000BDE8104000F0AEB90EB5CDE9000100F020
:101A100031FA029069460120ABBE0EBD08B5694699
:101A200000900220ABBE08BD1FB58DE807006946D7
:101A30000520ABBE04B010BD1FB58DE80F00694690
:101A40000620ABBEF6E708B5694600900920ABBE9C
:101A500008BD1CB5CDE9000169460A20ABBE1CBD1E
:101A6000704708B5694600900C20ABBE08BD000069
:101A70000048704724010024704770477047704742
:101A800038B504460A4600206946AFF300800028B6
:101A900008BF38BD02460099204600F090F90120A9
:101AA00038BD012000F0DFB9F8B5AFF3008005467E
:101AB00000200C460C2000BF0646A819A0420DD9F4
:101AC000324669460020AFF30080070008BF00F0EF
:101AD000CAF90098A04218BF0546C419FFF7C8FF0D
:101AE00005600746F01D20F007004619284600F063
:101AF00060F9B44208BFF8BDA21B31463868BDE8A2
:101B0000F84000F05CB970B50646FFF7B1FF056814
:101B100006F10B0020F00704B4429CBF002070BD0A
:101B20002B466A68BAB11068A04210D304F10801CC
:101B300088423CBF5068586007D351681019416013
:101B40001168091B016058601460101D70BD1346B8
:101B50005268002AE7D121462846FFF791FF002866
:101B6000DED170BD2DE9F041044616460D464769A9
:101B7000007B80072ED03846FFF765FF50BB3EB391
:101B8000012E02D0022E25D104E0204600F031F9CA
:101B900005441DE03846FFF764FFE168002841F086
:101BA0001001E16005DA204600F058F80120BDE898
:101BB000F081C9030BD56268E16A914200D81146F1
:101BC000A26911442269891A814200DD0846054450
:101BD000002D01DA0220EAE7E16A6068E2688142EA
:101BE00006D29103E06203D522F4003141F01002E5
:101BF000A6690027AE4213DCE16A814201D90B4697
:101C000000E0034603EB060C2369ACEB030CAC4588
:101C100006DD814201D98C4600E084469C4505D111
:101C2000A760276042F02000A5620DE0AD1BE669C9
:101C3000AE1B8142A66000D90846C01A281A20604F
:101C40005819606022F0200003490840E06000203D
:101C500084F84870ABE70000BFCFD7FFC16821F41C
:101C6000001141F08001C160002181600160704776
:101C70002DE9F74F15460C464FF0FF3B3848D76823
:101C8000D2F814A0074209D05046A969FFF7E1FE37
:101C9000002819DB3248C0430740EF604FF000498D
:101CA0006FF000484C4501D3464600E026460099B7
:101CB0003B4650463246FFF7B7FEA96920F0004286
:101CC000B21A1144A96128B12846FFF7C7FF584648
:101CD000BDE8FE8FA41BE5D10020F9E770B50446EE
:101CE0000569C06A6168884200D80846E16821F445
:101CF0002011E160C90312D5A84208D02246411B39
:101D00002846FFF7B5FF10B14FF0FF3070BD00203F
:101D1000E562C4E90150E06820F48030E060002012
:101D200070BD10B50446C06820F02000E060A16AD4
:101D3000A06988420DD02046FFF7D0FFE06820F46C
:101D4000405040F01000E060A06AA0612069E062AD
:101D5000606044F24001E0688843E06010BD00002C
:101D600010000200002801D000F01CB870470000ED
:101D700010B5014602A000F05DF8012010BD000082
:101D800053494752545245443A205265646972653A
:101D900063743A2063616E2774206F70656E3A2019
:101DA0000000000001491820ABBEFEE7260002003B
:101DB000704700210160416070470C207047034666
:101DC00040688C46002818BF88423CBF03464068E4
:101DD000F8D318681844884207D00CF1030020F0AB
:101DE0000700001D411A521A0146081D0A60FFF73C
:101DF0005FBC10B50146C268900703D0900607D5B6
:101E0000886A0AE0FEF7E8FE01210160881E10BD25
:101E10008B69486818440B69C01A91F848301BB1A7
:101E200091F84910401A10BD1103FCD50028FADDC5
:101E3000401E10BD70B505460C460A2000E06D1C22
:101E400000F037F835B128780028F8D102E0641C9A
:101E500000F02FF814B120780028F8D1BDE87040C8
:101E60000A2000F026B810B500F02AF8BDE81040AE
:101E7000FFF778BF10B5431C02E010F8011B71B1E9
:101E80008107FAD14FF0013202C88C1A8C4314EA50
:101E9000C211F9D0C01A0A0603D0C01E10BDC01A64
:101EA00010BD0A0401D0801E10BD0902FCD0401EE6
:101EB00010BD08B569468DF800000320ABBE08BD13
:101EC00010B5012805D0002103A0FFF7B3FF0120C2
:101ED00010BD09A1F8E7000053494752544D454D44
:101EE0003A204F7574206F662068656170206D65BB
:101EF0006D6F7279000000003A2048656170206DB6
:101F0000656D6F727920636F7272757074656400AD
:101F100080B54FF4807000F02BF880BD0000000009
:101F200080B584B0ADF80E009DF80F008DF80C0060
:101F3000BDF80E008DF80D0040F60040C5F6020019
:101F4000029001210191002206F0E6F946F2B0600C
:101F5000C2F2004003A902224FF0FF330AF0E4F975
:101F6000019A0298114606F0D7F904B080BD00002E
:101F700080B582B0ADF80600BDF80600FFF7D0FFCF
:101F800002B080BD0000000080B54FF4807000F00A
:101F900083F880BD0000000080B584B0ADF80E006D
:101FA0009DF80F008DF80C00BDF80E008DF80D00A7
:101FB00041F20000C5F6020002904FF40041019189
:101FC000002206F0A9F946F22860C2F2004003A9F7
:101FD00002224FF0FF330AF0A7F90199029801227B
:101FE00006F09AF904B080BD80B586B0ADF8160051
:101FF0008DED040AADF80E10BDF81600ADF80C001A
:10200000BDF81600ADF80A009DED040AB7EEC00A4F
:102010009FED151B20EE010BBCEEC00B8DED010AF0
:1020200001984CF20001C0F6FF710140BDF80C00B0
:1020300040EA9130ADF80C0001996FF39F31BDF883
:102040000A000843ADF80A00BDF80E0040F4005045
:1020500000F022F8BDF80A0000F01EF8BDF80C00F0
:1020600000F01AF806B080BD3A8C30E28E79254037
:1020700080B584B003A901910146019880ED000A62
:10208000ADF80A1090ED000ABDF80A104FF4804038
:10209000FFF7AAFF04B080BD80B582B0ADF806009E
:1020A000BDF80600FFF778FF02B080BD0000000019
:1020B00080B584B003900398006842F20001C4F236
:1020C0000201884209D0FFE70398006842F200113C
:1020D000C4F20201884209D1FFE742F20830C4F29B
:1020E0000200006810F4403F09D129E046F20830B0
:1020F000C5F60200006810F4403F21D0FFE708F069
:1021000083FF0290039840680190B0F5803F0AD0A9
:10211000FFE70198B0F5003F05D0FFE70198B0F563
:10212000403F07D00AE00398C1880298B0FBF1F065
:10213000029004E002988008029000E0FFE75FE070
:102140004FF40020002106F09BFE029003984068A7
:102150000090B0F5802F32D0FFE70098B0F5002F47
:102160002DD0FFE70098B0F5402F28D0FFE700986A
:10217000B0F5801F23D0FFE70098B0F5A01F1ED058
:10218000FFE70098B0F5C01F19D0FFE70098B0F541
:10219000E01F1FD0FFE70098B0F5001F1ED0FFE73B
:1021A0000098B0F5101F1DD0FFE70098B0F5201F74
:1021B0001CD0FFE70098B0F5301F1BD01EE003983D
:1021C00041686FF0010000EA51410298B0FBF1F064
:1021D000029014E002980009029010E00298400971
:1021E00002900CE002988009029008E00298C00971
:1021F000029004E00298000A029000E0FFE7FFE787
:1022000006F0A2F841F20301884217D8FFE70298CE
:1022100042F60151C0F23111884207D3FFE703981B
:102220000168886840F48070886006E0039801685F
:10223000886820F480708860FFE743E002984008D7
:102240000290029845F61061C0F25F01884209D8F9
:10225000FFE703980068806820F4407003990968DC
:1022600088602EE002984BF62041C0F2BE01884201
:102270000AD8FFE7039800688068012161F309200C
:102280000399096888601BE0029847F64001C0F294
:102290007D1188420AD8FFE7039800688068022110
:1022A00061F3092003990968886008E003980068D1
:1022B000806840F44070039909688860FFE7FFE791
:1022C000FFE7FFE704B080BD80B582B001900198C0
:1022D000806B00900098406D10F0500F4AD1FFE7DE
:1022E0000099486D40F400704865009800680068E7
:1022F0000007002821D5FFE7009800680BF0F8FDE3
:10230000D0B1FFE700980068C0688004002812D4AC
:10231000FFE70099486D20F4807048650098406D93
:10232000C004002806D4FFE70099486D40F0010082
:102330004865FFE7FFE7FFE718E000980068C0681E
:10234000800790B9FFE70099486D20F480704865D8
:102350000098406DC004002806D4FFE70099486D3E
:1023600040F001004865FFE7FFE7FFE7009801F054
:1023700003FE10E00098406DC006002804D5FFE77A
:10238000009801F021FE05E00098C06CC16C019836
:102390008847FFE7FFE702B080BD000000000000B3
:1023A00080B582B001900198806B00900099486DD3
:1023B00040F0400048650099886D40F00400886551
:1023C000009801F001FE02B080BD00000000000096
:1023D00080B582B001900198806B0090009801F068
:1023E000EFFD02B080BD000080B586B00490049877
:1023F00000680BF055FD002840F09280FFE704983C
:10240000006880683F21C8F2000108420ED0FFE753
:102410000499486D40F0100048650499886D40F0BB
:102420000100886501208DF817007DE004980068A0
:102430000BF0E2FC05F090FF039004980168012086
:1024400042F20002C4F20202914201900CD0FFE776
:10245000049800684DF60071CBF6FD710844B0FA9F
:1024600080F040090190FFE70198C10746F2003073
:10247000C5F6020000291CBF42F20030C4F202007F
:102480000BF0EAFC02900498006842F20011C4F2DA
:102490000201884206D1FFE742F20000C4F20200C6
:1024A000009003E0049800680090FFE7009804990A
:1024B0000968884203D0FFE7029880BBFFE7FFE787
:1024C000049800680068C00740BBFFE704980068F4
:1024D0000BF0E6FC28B9FFE7049800680BF08CFCD1
:1024E000FFE705F039FF0399401A032815D3FFE7EA
:1024F000049800680068C00770B9FFE70499486D48
:1025000040F0100048650499886D40F0010088652E
:1025100001208DF8170007E0FFE7D1E7FFE7FFE7AD
:1025200000208DF81700FFE79DF8170006B080BD6A
:1025300080B546F2F830C2F2004001F049FD46F2A3
:102540005C40C2F2004001F043FD80BD000000008D
:10255000FFE7FEE70000000080B546F2C040C2F28F
:10256000004003F0B9FB80BD80B546F23850C2F29E
:10257000004003F0B1FB80BD80B546F2B050C2F21E
:10258000004003F0A9FB80BD83B00290029801686F
:1025900001201022C4F202029142009000F0A380B8
:1025A000FFE70298016801202822C4F2020291424A
:1025B000009000F09880FFE7029801680120402217
:1025C000C4F202029142009000F08D80FFE7029871
:1025D000016801205822C4F202029142009000F0EA
:1025E0008280FFE70298016801207022C4F2020293
:1025F0009142009077D0FFE702980168012088227D
:10260000C4F20202914200906DD0FFE70298016887
:102610000120A022C4F202029142009063D0FFE7A1
:10262000029801680120B822C4F20202914200908F
:1026300059D0FFE702980168012040F21042C4F22D
:102640000202914200904ED0FFE7029801680120FB
:1026500040F22842C4F202029142009043D0FFE7C8
:1026600002980168012040F24042C4F20202914205
:10267000009038D0FFE702980168012040F25842EC
:10268000C4F20202914200902DD0FFE70298016847
:10269000012040F27042C4F202029142009022D026
:1026A000FFE702980168012040F28842C4F202026A
:1026B0009142009017D0FFE702980168012040F294
:1026C000A042C4F20202914200900CD0FFE70298AF
:1026D00000684FF64831CBF6FD710844B0FA80F03F
:1026E00040090090FFE70098C00740B3FFE7029859
:1026F000007810384AF6AB21CAF6AA21A0FB0110D7
:1027000000090190019800F0070143F21C50C0F647
:102710000100405C0299C8650198042807D3FFE7CF
:1027200002990868042262F30900886506E00299AC
:10273000086840F2FF3290438865FFE705E00299A0
:10274000086820F0FF008865FFE70298806D03B0FD
:10275000704700000000000084B0039003980068F8
:10276000019003980168012045F20842C5F6020273
:10277000914200904ED0FFE703980168012045F296
:102780001C42C5F602029142009043D0FFE7039835
:102790000168012045F23042C5F6020291420090E4
:1027A00038D0FFE703980168012045F24442C5F69E
:1027B0000202914200902DD0FFE7039801680120AA
:1027C00045F25842C5F602029142009022D0FFE73E
:1027D00003980168012045F26C42C5F6020291425D
:1027E000009017D0FFE703980168012045F280426E
:1027F000C5F60202914200900CD0FFE703980068F2
:102800004AF66C31CAF2FD710844B0FA80F0400912
:102810000090FFE70098C00710B3FFE70398007827
:1028200008384CF6CD41CCF6CC41A0FB0110000994
:102830000290029945F60000C5F6020000EB810007
:1028400003990866039945F68000C5F602004866BC
:10285000029800F01F01012088400399886635E046
:102860000398007810384AF6AB21CAF6AA21A0FBDB
:10287000011000090290019840F2B841C4F202012F
:1028800088420CD8FFE7019840F21041C4F20201DF
:10289000884204D3FFE7029808300290FFE70299CC
:1028A00040F60000C4F2020000EB810003990866C4
:1028B000039940F68000C4F202004866029800F0D6
:1028C0001F010120884003998866FFE704B0704724
:1028D00083B002900298007901900198002800F0DE
:1028E0008A80FFE70198082800F28580FFE70298B8
:1028F0000168012045F20842C5F6020291420090AB
:102900004ED0FFE702980168012045F21C42C5F64F
:1029100002029142009043D0FFE702980168012033
:1029200045F23042C5F602029142009038D0FFE7EE
:1029300002980168012045F24442C5F60202914224
:1029400000902DD0FFE702980168012045F258421F
:10295000C5F602029142009022D0FFE7029801687A
:10296000012045F26C42C5F602029142009017D058
:10297000FFE702980168012045F28042C5F6020295
:10298000914200900CD0FFE7029800684AF66C3143
:10299000CAF2FD710844B0FA80F040090090FFE7E8
:1029A0000098C00780B1FFE7019945F6FC00C5F625
:1029B000020000EB81000299C866029945F64010BA
:1029C000C5F6020008670FE0019940F6FC00C4F26A
:1029D000020000EB81000299C866029940F640109F
:1029E000C4F202000867FFE70198411E01208840F9
:1029F00002994867FFE703B070470000000000003D
:102A000085B0049000208DF80F000498806918BBF1
:102A1000FFE70498806A029003281BD80299DFE838
:102A200001F0020D0218049890F82F00C00720B1A1
:102A3000FFE701208DF80F00FFE70CE00498C06A63
:102A4000B0F1C07F04D1FFE701208DF80F00FFE750
:102A500001E000E0FFE747E004988069B0F5005F1F
:102A600026D1FFE70498806A019003281ED80199B7
:102A7000DFE801F00206021101208DF80F0016E0D8
:102A8000049890F82F00C00720B1FFE701208DF8CF
:102A90000F00FFE70BE00498C06AB0F1C07F04D1DB
:102AA000FFE701208DF80F00FFE700E0FFE71AE0E5
:102AB0000498806A0090032804D3FFE70098032855
:102AC00004D00EE001208DF80F000BE0049890F880
:102AD0002F00C00720B1FFE701208DF80F00FFE7AE
:102AE00000E0FFE7FFE7FFE79DF80F0005B0704744
:102AF00089B008900791069205930898806D04901C
:102B00000898806D03900898016801201022C4F293
:102B100002029142029000F00381FFE708980168E9
:102B200001202822C4F202029142029000F0F880B3
:102B3000FFE70898016801204022C4F20202914296
:102B4000029000F0ED80FFE708980168012058220C
:102B5000C4F202029142029000F0E280FFE708987E
:102B6000016801207022C4F202029142029000F03A
:102B7000D780FFE70898016801208822C4F202028A
:102B80009142029000F0CC80FFE708980168012094
:102B9000A022C4F202029142029000F0C180FFE73D
:102BA000089801680120B822C4F202029142029002
:102BB00000F0B680FFE708980168012040F210425B
:102BC000C4F202029142029000F0AA80FFE7089846
:102BD0000168012040F22842C4F2020291420290B0
:102BE00000F09E80FFE708980168012040F2404213
:102BF000C4F202029142029000F09280FFE708982E
:102C00000168012040F25842C4F20202914202904F
:102C100000F08680FFE708980168012040F27042CA
:102C2000C4F20202914202907AD0FFE7089801684C
:102C3000012040F28842C4F20202914202906FD019
:102C4000FFE708980168012040F2A042C4F20202A6
:102C50009142029064D0FFE708980168012040F299
:102C6000B842C4F202029142029059D0FFE708989C
:102C70000168012045F20842C5F602029142029025
:102C80004ED0FFE708980168012045F21C42C5F6C6
:102C900002029142029043D0FFE7089801680120A8
:102CA00045F23042C5F602029142029038D0FFE769
:102CB00008980168012045F24442C5F6020291429B
:102CC00002902DD0FFE708980168012045F2584294
:102CD000C5F602029142029022D0FFE708980168EF
:102CE000012045F26C42C5F602029142029017D0D3
:102CF000FFE708980168012045F28042C5F602020C
:102D0000914202900CD0FFE7089800684AF66C31B7
:102D1000CAF2FD710844B0FA80F040090290FFE762
:102D20000298C00770B1FFE70898416E806E486056
:102D30000898C06E28B1FFE70898016F406F48609F
:102D4000FFE7FFE70898016801201022C4F20202A1
:102D50009142019000F0A380FFE7089801680120EC
:102D60002822C4F202029142019000F09880FFE70D
:102D70000898016801204022C4F2020291420190A9
:102D800000F08D80FFE70898016801205822C4F206
:102D900002029142019000F08280FFE708980168EA
:102DA00001207022C4F202029142019077D0FFE725
:102DB0000898016801208822C4F202029142019021
:102DC0006DD0FFE7089801680120A022C4F202023A
:102DD0009142019063D0FFE7089801680120B82272
:102DE000C4F202029142019059D0FFE708980168AD
:102DF000012040F21042C4F20202914201904ED0F2
:102E0000FFE708980168012040F22842C4F202025C
:102E10009142019043D0FFE708980168012040F2F9
:102E20004042C4F202029142019038D0FFE7089874
:102E30000168012040F25842C4F20202914201901E
:102E40002DD0FFE708980168012040F27042C4F2DB
:102E500002029142019022D0FFE708980168012008
:102E600040F28842C4F202029142019017D0FFE77B
:102E700008980168012040F2A042C4F20202914287
:102E800001900CD0FFE7089800684FF64831CBF668
:102E9000FD710844B0FA80F040090190FFE7019805
:102EA000C00750B3FFE70898C06D00F01F013F2036
:102EB00088400499886008980168086820F4802098
:102EC0000860059808990968486008988068402853
:102ED00009D1FFE70698089909688860079808995A
:102EE0000968C86008E0079808990968886006982A
:102EF00008990968C860FFE782E008980168012026
:102F000045F20842C5F60202914200904ED0FFE71A
:102F100008980168012045F21C42C5F60202914260
:102F2000009043D0FFE708980168012045F2304245
:102F3000C5F602029142009038D0FFE70898016878
:102F4000012045F24442C5F60202914200902DD084
:102F5000FFE708980168012045F25842C5F60202D1
:102F60009142009022D0FFE708980168012045F2C5
:102F70006C42C5F602029142009017D0FFE7089814
:102F80000168012045F28042C5F60202914200909C
:102F90000CD0FFE7089800684AF66C31CAF2FD7160
:102FA0000844B0FA80F040090090FFE70098C0079D
:102FB00020B3FFE70898C06D00F01F010120884092
:102FC00003994860059808990968486008988068DE
:102FD000402809D1FFE70698089909688860079892
:102FE00008990968C86008E0079808990968886026
:102FF000069808990968C860FFE700E0FFE7FFE767
:1030000009B0704700000000704700000000000099
:1030100081B0EFF3108072B60090FFE7FEE700008A
:1030200044F60C01C5F60201086840F00200086091
:10303000FFE744F60400C5F602000068800400289B
:1030400001D4FFE7F5E7704780B59EB000201C90E3
:103050001B901A9042F20041C4F674111991ADF818
:103060006200ADF860003120ADF85E00BDF85E0092
:1030700049F69A11C1F69911A0FB0110ADF85C0058
:10308000BDF85C0020B9FFE70120ADF85C00FFE768
:1030900001201690FFE71698312800F2AB80FFE779
:1030A00016984FF47A71484315909DED150AB8EEC5
:1030B000400A00200890FEF7DBFF052004F024FF03
:1030C00040F20E00C2F200400D90028846F2F83045
:1030D000C2F2004040F24421C2F20041049101F0EA
:1030E000F7FC0D98028846F25C40C2F2004043F2C1
:1030F0000831C2F20041059101F0EAFC46F2387055
:10310000C2F20040039009F03FFC039809F0B8FCBC
:103110000D9904980A8840F64421C2F200410691B4
:103120000BF0EAFA05980D990A8843F60831C2F2C5
:1031300000410B910BF0E0FA0699089A46F29430A0
:10314000C2F200400790012309930DF005FB069899
:1031500040F20C01C2F200410A910A8842F6442171
:10316000C2F200410C910EF03BFC0798089A099BB3
:103170000B990DF0F1FA0A990B980A8845F6083177
:10318000C2F200410E910EF02BFC0C980D990988AB
:103190000BF06AFA0D990E98169B40F28012C2F25B
:1031A00000420F9202EB830202ED010A09880BF044
:1031B0005BFA0F98169A43F24421C2F2004101EBE8
:1031C000820101ED010A169900EB810010ED010A60
:1031D000B7EEC00A684680ED000B53EC102B48F6A2
:1031E000BA20C0F60100FDF7B7F9FFE716980130E5
:1031F000169050E70020ADF85200FFE7BDF85200EE
:10320000BDF85E10884277DAFFE700201390BDF822
:10321000521040F28010C2F2004000EB810090EDAD
:10322000000A9FED851AB4EE410AF1EE10FA17DD9F
:10323000FFE7BDF8521043F24420C2F2004000EB19
:10324000810090ED000A40F28010C2F2004000EBD5
:10325000810090ED001A80EE010A8DED130AFFE760
:10326000BDF85200BDF85C10884209DAFFE79DED19
:10327000131A9DED1C0A30EE010A8DED1C0AFFE7C2
:10328000BDF85200BDF85E10BDF85C20891A884276
:1032900009DBFFE79DED131A9DED1B0A30EE010AD5
:1032A0008DED1B0AFFE79DED130A9DED1A1AB4EE92
:1032B000410AF1EE10FA07DDFFE713981A90BDF806
:1032C0005200ADF86200FFE79DED130A9DED191A5B
:1032D000B4EE410AF1EE10FA07DAFFE713981990FD
:1032E000BDF85200ADF86000FFE7FFE7BDF85200FF
:1032F0000130ADF8520081E79DED1C0ABDF85C007D
:1033000001EE100AB8EEC11A80EE010A8DED120A24
:103310009DED1B0ABDF85C0001EE100AB8EEC11A63
:1033200080EE010A8DED110ABDF85E008008ADF84F
:103330004200BDF85E0000EB40008008ADF84000A0
:10334000BDF86200BDF84210884223DBFFE7BDF8FC
:103350006200BDF8401088421CDCFFE79DED1A0AB0
:103360009DED121A31EE011AB4EE410AF1EE10FA97
:1033700010DDFFE79DED1A0A9DED111A31EE011ADD
:10338000B4EE410AF1EE10FA04DDFFE703208DF8F8
:1033900077004DE0BDF86000BDF84210884223DBA5
:1033A000FFE7BDF86000BDF8401088421CDCFFE775
:1033B0009DED120A9DED191A31EE011AB4EE410A83
:1033C000F1EE10FA10DDFFE79DED110A9DED191ADF
:1033D00031EE011AB4EE410AF1EE10FA04DDFFE716
:1033E00004208DF8770023E09DED120A9DED111A5F
:1033F00031EE011AB4EE410AF1EE10FA04DDFFE7F6
:1034000001208DF8770013E09DED110A9DED121A51
:1034100031EE011AB4EE410AF1EE10FA04DDFFE7D5
:1034200002208DF8770003E000208DF87700FFE799
:103430009DF877001EB080BDBD37863500000000C6
:1034400081B0009001B0704781B0009001B070472A
:1034500081B0009001B0704781B0009001B070471A
:1034600081B0009001B0704780B5A6B02490239140
:1034700000208DF88B002398006808B1FFE7FFE774
:10348000FFE7249890F85000012804D1FFE70220BC
:103490008DF897002DE12499012081F85000FFE775
:1034A000FFE700201D901E902498006842F2000162
:1034B000C4F20201884206D1FFE742F20010C4F2D2
:1034C0000200089002E000200890FFE7089878B911
:1034D000FFE72499486D40F020004865FFE72499F4
:1034E000002081F85000FFE701208DF8970000E1EF
:1034F00008980AF0F5FC0790249800680AF0F0FCA0
:10350000002840F0E280FFE70798002840F0DD80C7
:10351000FFE724980168012042F20002C4F202028F
:10352000914206900CD0FFE7249800684DF6007198
:10353000CBF6FD710844B0FA80F040090690FFE731
:103540000698C10746F20030C5F6020000291CBFEC
:1035500042F20030C4F20200219023980068002853
:103560005ED0FFE72198806820F4404023994968A5
:1035700008432199886024980168012042F20002E2
:10358000C4F20202914205900CD0FFE72498006833
:103590004DF60071CBF6FD710844B0FA80F0400999
:1035A0000590FFE70598C10746F20030C5F6020016
:1035B00000291CBF42F20030C4F2020042F2003186
:1035C000C4F20201884212D1FFE742F20000C4F2C5
:1035D00002000AF06DFC039042F20010C4F20200F7
:1035E0000AF066FC014603980843049007E046F29F
:1035F0000000C5F602000AF05BFC0490FFE70498A7
:1036000068B9FFE72198806840F61F718843239AC4
:10361000116892681143084321998860FFE753E0DD
:103620002199886820F4404088602498016801202E
:1036300042F20002C4F20202914202900CD0FFE773
:10364000249800684DF60071CBF6FD710844B0FA7D
:1036500080F040090290FFE70298C10746F200306F
:10366000C5F6020000291CBF42F20030C4F202007D
:1036700042F20031C4F20201884212D1FFE742F265
:103680000000C4F202000AF013FC009042F20010A5
:10369000C4F202000AF00CFC0146009808430190B5
:1036A00007E046F20000C5F602000AF001FC0190B6
:1036B000FFE7019838B9FFE72199886840F61F7243
:1036C00090438860FFE7FFE708E02499486D40F0E9
:1036D0002000486501208DF88B00FFE7FFE7249963
:1036E000002081F85000FFE79DF88B008DF89700CF
:1036F000FFE79DF8970026B080BD000000000000A5
:1037000080B5AAB02690259100208DF893002190D5
:10371000269890F83800012801D1FFE700E0FFE784
:103720002598C0680021C4F2FF71884201D0FFE7EC
:103730001EE02698006842F20001C4F202018842AD
:1037400001D1FFE7FFE72698006842F20011C4F2BA
:103750000201884201D1FFE7FFE72698006846F2A0
:103760000001C5F60201884201D1FFE7FFE7FFE74C
:10377000FFE7269890F85000012804D1FFE70220C7
:103780008DF89F00F1E32699012081F85000FFE7B2
:10379000FFE7269800680AF09BFB002840F0D183E1
:1037A000FFE72598C078000600282DD4FFE725986C
:1037B0000068000330B9FFE725980068C0F3846013
:1037C0001E9015E02598006890FAA0F0289028989F
:1037D00020B9FFE720208DF8A70005E02898B0FA6F
:1037E00080F08DF8A700FFE79DF8A7001E90FFE787
:1037F0001E9800F01F01012000FA01F226980168CE
:10380000C8691043C861FFE72698006825990A68CF
:1038100049680AF089FB269800680AF059FB209055
:10382000269800680AF020FB1F902098002840F09E
:10383000B580FFE71F98002840F0B080FFE726988A
:103840000068259A116892680AF0CEFB41F20000E8
:10385000C5F60040006800F07040B0F1805F0BD109
:10386000FFE72598406926990968C96801F01C019D
:10387000490888401D901FE026980068C068C0066F
:1038800000280BD4FFE72598406926990968C96884
:1038900001F01C01490888401C900AE02598406905
:1038A00026990968C96801F01001490888401C90F0
:1038B000FFE71C981D90FFE71D982390259800694D
:1038C000042821D0FFE72698006825990A6809692D
:1038D000239B0AF0F5FB26980068259A1169527E11
:1038E000013AB2FA82F25209D2070AF005FC269890
:1038F0000068259A1169127E013AB2FA82F25209E1
:10390000D2020AF0C9FB48E026980068006E00F079
:10391000F84025990968B0EB816F07D1FFE7269839
:103920000168086E20F000400866FFE726980068EE
:10393000406E00F0F84025990968B0EB816F07D11F
:10394000FFE726980168486E20F000404866FFE7D0
:1039500026980068806E00F0F84025990968B0EB61
:10396000816F07D1FFE726980168886E20F000403C
:103970008866FFE726980068C06E00F0F840259939
:103980000968B0EB816F07D1FFE726980168C86E20
:1039900020F00040C866FFE7FFE7FFE726980068D1
:1039A0000AF07EFA002840F0CB82FFE726980068F4
:1039B000259A1168D2680AF033FB2598C068002167
:1039C000C4F2FF71884240F05781FFE726980068F3
:1039D0001B9042F20001C4F20201884240F0A48030
:1039E000FFE7259800680221C0F23041884203D1E8
:1039F000FFE701201A9094E0259800680421C0F6A2
:103A00006001884205D1FFE74020C1F620101990DF
:103A100084E0259800680821C0F69041884205D1CD
:103A2000FFE78020C1F65050189074E02598006898
:103A30001021C1F2C001884206D1FFE740F2001018
:103A4000C2F28010179063E0259800682021C1F22F
:103A5000F041884206D1FFE740F20020C2F2B050A8
:103A6000169052E02598006840F20041C2F600210D
:103A7000884206D1FFE740F60000C2F6306015909C
:103A800040E02598006840F60001C2F630618842A7
:103A900006D1FFE741F20000C3F2602014902EE04F
:103AA0002598006841F20001C3F26021884206D1E6
:103AB000FFE742F20000C3F2906013901CE02598EB
:103AC00000680021C4F22131884205D1FFE70020BF
:103AD000C4F2527012900CE0259801680022C4F6DE
:103AE00084320020914204BF0020C4F6B8701290C6
:103AF000FFE712981390FFE713981490FFE71498CC
:103B00001590FFE715981690FFE716981790FFE7B6
:103B100017981890FFE718981990FFE719981A90CE
:103B2000FFE71A981190A2E02698006842F200116F
:103B3000C4F20201884240F09480FFE725980068B3
:103B40000221C0F23041884203D1FFE701201090EA
:103B500084E0259800680421C0F66001884205D100
:103B6000FFE74020C1F620100F9074E02598006810
:103B70000821C0F69041884205D1FFE78020C1F6B8
:103B800050500E9064E0259800681021C1F2C001E9
:103B9000884206D1FFE740F20010C2F280100D907B
:103BA00053E0259800682021C1F2F041884206D1F7
:103BB000FFE740F20020C2F2B0500C9042E025989E
:103BC000006840F20041C2F60021884206D1FFE7BA
:103BD00040F60000C2F630600B9030E02598006897
:103BE00040F60001C2F63061884206D1FFE741F29B
:103BF0000000C3F260200A901EE02598006841F2A0
:103C00000001C3F26021884206D1FFE742F20000C2
:103C1000C3F2906009900CE0259801680022C4F678
:103C200084320020914204BF0020C4F6B87009908D
:103C3000FFE709980A90FFE70A980B90FFE70B98B7
:103C40000C90FFE70C980D90FFE70D980E90FFE7A2
:103C50000E980F90FFE70F981090FFE710980890CC
:103C600002E000200890FFE708981190FFE71B98FA
:103C700011990AF089F9FFE72598C0780006002815
:103C800040F15D81FFE726980168012042F20002C1
:103C9000C4F20202914207900CD0FFE72698006818
:103CA0004DF60071CBF6FD710844B0FA80F0400982
:103CB0000790FFE70798C10746F20030C5F60200FB
:103CC00000291CBF42F20030C4F202000AF0B4F82E
:103CD0002290269801684FF0010042F20002C4F2DF
:103CE0000202914206900CD0FFE7269800684DF63C
:103CF0000071CBF6FD710844B0FA80F040090690DF
:103D0000FFE70698C10746F20030C5F60200002919
:103D10001CBF42F20030C4F2020042F20031C4F291
:103D20000201884212D1FFE742F20000C4F2020011
:103D30000AF0B6F8049042F20010C4F202000AF051
:103D4000AFF8014604980843059007E046F20000EA
:103D5000C5F602000AF0A4F80590FFE705980028D0
:103D600040F0E380FFE7259800680021CCF684311D
:103D7000884255D1FFE79DF88A00000600284FD4FD
:103D8000FFE72698006846F20001C5F60201884266
:103D900045D1FFE726980168012042F20002C4F2F3
:103DA0000202914203900CD0FFE7269800684DF67E
:103DB0000071CBF6FD710844B0FA80F04009039021
:103DC000FFE70398C10746F20030C5F6020000295C
:103DD0001CBF42F20030C4F20200229941F40001FB
:103DE0000AF04AF940F21000C2F2004000684FEABF
:103DF000901042F66351C0F23E51A0FB01104FEA11
:103E000090114FF0020000EB41002190FFE7219854
:103E100020B1FFE7219801382190F8E7FFE783E020
:103E2000259800680021CCF25271884238D1FFE712
:103E30009DF88B00C00798BBFFE72698006846F204
:103E40000001C5F60201884229D1FFE726980168E2
:103E5000012042F20002C4F20202914202900CD010
:103E6000FFE7269800684DF60071CBF6FD71084417
:103E7000B0FA80F040090290FFE70298C10746F2CD
:103E80000030C5F6020000291CBF42F20030C4F227
:103E90000200229941F080710AF0EEF8FFE742E05B
:103EA000259800680021CCF6B871884239D1FFE727
:103EB0009DF88A004006002833D4FFE72698006862
:103EC00046F20001C5F60201884229D1FFE7269893
:103ED0000168012042F20002C4F202029142019004
:103EE0000CD0FFE7269800684DF60071CBF6FD7107
:103EF0000844B0FA80F040090190FFE70198C1073B
:103F000046F20030C5F6020000291CBF42F2003024
:103F1000C4F20200229941F480010AF0ADF8FFE7F3
:103F200000E0FFE7FFE7FFE708E02699486D40F073
:103F30002000486501208DF89300FFE7FFE7FFE7C9
:103F400008E02699486D40F02000486501208DF872
:103F50009300FFE7FFE72699002081F85000FFE774
:103F60009DF893008DF89F00FFE79DF89F002AB011
:103F700080BD00000000000081B00090009846F273
:103F8000F831C2F20041884207D1FFE746F2903192
:103F9000C2F2004101200870FFE7009846F25C4140
:103FA000C2F20041884207D1FFE746F29131C2F2E6
:103FB000004101200870FFE701B0704700000000D9
:103FC00081B0009001B0704781B0009001B070479F
:103FD00080B590B00F9000200E900F980068006898
:103FE0000D900F98006840680C900F9801680120B0
:103FF00042F20002C4F20202914206900CD0FFE7A6
:104000000F9800684DF60071CBF6FD710844B0FAC8
:1040100080F040090690FFE70698C10746F200309D
:10402000C5F6020000291CBF42F20030C4F20200B3
:1040300009F012FF07909DF834004FEA80700028C5
:104040001AD5FFE79DF830008007002814D5FFE758
:104050000F98406DC006002806D4FFE70F99486D01
:1040600040F400604865FFE70F98FFF7E9F90F9803
:10407000016802200860FFE79DF83400400700282F
:1040800006D5FFE70C9800F0040004280ED0FFE7E7
:104090009DF834000007002840F19F80FFE79DF85D
:1040A00030000007002840F19880FFE70F98406D2E
:1040B000C006002806D4FFE70F99486D40F4007051
:1040C0004865FFE70F98006809F012FF00287CD0D0
:1040D000FFE70F98006842F20011C4F20201884223
:1040E00006D1FFE742F20000C4F20200059003E0AF
:1040F0000F9800680590FFE705980F9909688842B6
:104100000BD0FFE7079840B1FFE70798052804D0D8
:10411000FFE70798092805D1FFE70F980068C068F6
:10412000099018E00F98006842F20011C4F20201F1
:10413000884206D1FFE742F20000C4F20200049078
:1041400003E00F9800680490FFE70498089008982F
:10415000C0680990FFE7099800F40050B0F5005FCF
:1041600032D0FFE70F9800680068000700282AD5C2
:10417000FFE70F98006809F0ABFEC0B9FFE70F98A2
:104180000168486820F00C0048600F99486D20F4E1
:10419000807048650F98406DC004002806D4FFE782
:1041A0000F99486D40F001004865FFE70AE00F995C
:1041B000486D40F0100048650F99886D40F001008F
:1041C0008865FFE7FFE7FFE7FFE70F98FFF7D4FEFB
:1041D0000F9801680C200860FFE79DF83400800606
:1041E000002806D5FFE70C9800F0200020280ED00C
:1041F000FFE79DF834004006002840F1B680FFE755
:104200009DF830004006002840F1AF80FFE70F988E
:10421000406DC006002806D4FFE70F99486D40F4B2
:1042200000504865FFE70F98006809F025FE0B90E5
:104230000F98006809F05CFE0A900F98006842F23F
:104240000011C4F20201884206D1FFE742F20000E9
:10425000C4F20200039003E00F9800680390FFE7A8
:1042600003980F99096888420BD0FFE7079840B17F
:10427000FFE70798062804D0FFE70798072805D12D
:10428000FFE70F980068C068099018E00F98006871
:1042900042F20011C4F20201884206D1FFE742F265
:1042A0000000C4F20200029003E00F980068029040
:1042B000FFE7029808900898C0680990FFE70B98FC
:1042C00000284AD0FFE79DF82700800700280AD57C
:1042D000FFE70A9800283FD0FFE79DF825008006F9
:1042E000002839D4FFE70F980068006840060028CE
:1042F00031D5FFE79DF82600800600282AD4FFE785
:104300000F98006809F0B0FDC0B9FFE70F98016889
:10431000486820F0600048600F99486D20F4805094
:1043200048650F98406DC005002806D4FFE70F9937
:10433000486D40F001004865FFE70AE00F99486DBD
:1043400040F0100048650F99886D40F001008865C5
:10435000FFE7FFE7FFE7FFE7FFE70F98FFF774F8D6
:104360000F98016860200860FFE79DF834000006A0
:10437000002813D5FFE79DF83000000600280DD572
:10438000FFE70F99486D40F4803048650F9800F0C2
:104390009FFA0F98016880200860FFE79DF83500BC
:1043A000C00798B1FFE79DF83100C00770B1FFE783
:1043B0000F99486D40F4003048650F98FFF74CF8AE
:1043C0000F9801684FF480700860FFE79DF8350092
:1043D0008007002814D5FFE79DF8310080070028EA
:1043E0000ED5FFE70F99486D40F4802048650F987F
:1043F000FFF736F80F9801684FF400700860FFE788
:104400009DF83400C00600285DD5FFE79DF8300018
:10441000C006002857D5FFE70F98006B18B9FFE7D3
:1044200001200E9038E0079858B3FFE70F98016815
:10443000012042F20002C4F20202914201900CD02B
:10444000FFE70F9800684DF60071CBF6FD71084448
:10445000B0FA80F040090190FFE70198C10746F2E9
:104460000030C5F6020000291CBF42F20030C4F241
:10447000020009F0E9FC18B1FFE701200E90FFE708
:1044800009E00F980068C068800718B1FFE70120B5
:104490000E90FFE7FFE7FFE70E9801280ED1FFE738
:1044A0000F99486D40F4806048650F99886D40F021
:1044B000020088650F98FFF787FDFFE70F980168F6
:1044C00010200860FFE79DF835004007002819D547
:1044D000FFE79DF831004007002813D5FFE70F994B
:1044E000486D40F4804048650F99886D40F00800A1
:1044F00088650F9801684FF4806008600F98FEF798
:10450000A7FFFFE710B080BD10B58CB00A90002067
:104510008DF8270006900A9820B9FFE701208DF852
:104520002F00D1E10A98C06838B1FFE70A98007FF0
:10453000012801D1FFE7FFE7FFE70A98406D50B976
:10454000FFE70A9800F0C8F90A99002088650A99DF
:1045500081F85000FFE70A98006809F099FC28B13B
:10456000FFE70A98006809F03BFCFFE70A9800683B
:1045700009F0A6FCE8B9FFE70A98006809F04CFCCE
:1045800040F21000C2F200400068800942F6635118
:10459000C0F23E51A0FB0101012000EB91100690FA
:1045A000FFE7069820B1FFE7069801380690F8E784
:1045B000FFE70A98006809F083FC70B9FFE70A99E1
:1045C000486D40F0100048650A99886D40F0010080
:1045D000886501208DF82700FFE70A98006809F038
:1045E00077FC07900A98406DC006002800F15E81B4
:1045F000FFE70798002840F05981FFE70A98406DCF
:1046000040F0020020F480700A9948650A9800681A
:1046100009F046FC002870D1FFE70A9801680120E4
:1046200042F20002C4F20202914203900CD0FFE772
:104630000A9800684DF60071CBF6FD710844B0FA97
:1046400080F040090390FFE70398C10746F200306D
:10465000C5F6020000291CBF42F20030C4F202007D
:1046600042F20031C4F20201884212D1FFE742F265
:104670000000C4F2020009F013FC019042F20010A5
:10468000C4F2020009F00CFC0146019808430290B4
:1046900007E046F20000C5F6020009F001FC0290B6
:1046A000FFE7029840BBFFE70A980168012042F249
:1046B0000002C4F20202914200900CD0FFE70A9877
:1046C00000684DF60071CBF6FD710844B0FA80F039
:1046D00040090090FFE70098C10746F20030C5F698
:1046E000020000291CBF42F20030C4F202000A9905
:1046F000496809F0B1FCFFE7FFE703F025FE41F24E
:104700000401884213D3FFE70A98806810280ED16D
:10471000FFE70A994A7D086B40EA42308A681043F5
:10472000097F40EA014040F00C0008900BE00A9934
:104730004A7D086B40EA42308A681043097F40EAAC
:1047400001400890FFE70A98007F01280BD1FFE79E
:104750000A98016A0020CFF6FE7000EB41410898EC
:1047600008430890FFE70A98406A50B1FFE70A99AA
:10477000486A896A00F478700143089808430890F1
:10478000FFE70A980068C0684CF20301CFF6F071A9
:104790000840089908430A990968C8600A9800689F
:1047A00009F096FB05900A98006809F05DFB0490FB
:1047B0000598002859D1FFE70498002855D1FFE754
:1047C0000A98017DC06A40EA813008900A98006822
:1047D000C06844F203018843089908430A990968AC
:1047E000C8600A9890F83800012829D1FFE70A9894
:1047F000406A20B1FFE70A98806A08B9FFE7FFE73F
:104800000A98006800694FF61E01CFF6004100EAE1
:1048100001020A9B1968DC6BD3F840E0D3F844C06E
:104820000020CFF6FF7000EB044040EA0E0040EAA3
:104830000C009B6C1843104340F00100086106E037
:104840000A980168086920F001000861FFE70A98EA
:104850000068006920F070400A9A1168526B10439A
:1048600008610A98FDF724FCFFE70A98C068012850
:104870000CD1FFE70A980068006B20F00F000A9A3D
:1048800011689269013A1043086306E00A980168CA
:10489000086B20F00F000863FFE70A98406D40F0B6
:1048A000010020F002000A99486508E00A99486D65
:1048B00040F01000486501208DF82700FFE79DF8C3
:1048C00027008DF82F00FFE79DF82F000CB010BDDA
:1048D00081B0009001B0704780B590B00F9000207B
:1048E0000E900D900C900B900A900F98006842F279
:1048F0000001C4F2020188426FD1FFE746F20C309A
:10490000C2F200400168013101600068012810D145
:10491000FFE7FFE744F2D840C5F60200016841F026
:1049200020010160006800F0200009900998FFE76D
:10493000FFE7FFE744F2E040C5F60200016841F0FE
:1049400004010160006800F0040008900898FFE787
:1049500001200A9003200B90002004900C9040F658
:104960000000C5F602000AA903F0F2FA049946F223
:10497000C040C2F2004005901022C4F20202026060
:10498000092242608160C1604FF4806202614FF48D
:10499000006242614FF400528261C1614FF4003203
:1049A0000262416202F078FA18B1FFE7FEF730FBCD
:1049B000FFE7FFE70F9846F2C041C2F20041C16431
:1049C0000F988863FFE7122003900022114603F03E
:1049D000EBFD039803F0DCFD75E00F98006842F2F0
:1049E0000011C4F2020188426CD1FFE746F20C309C
:1049F000C2F200400168013101600068012810D155
:104A0000FFE7FFE744F2D840C5F60200016841F035
:104A100020010160006800F0200007900798FFE780
:104A2000FFE7FFE744F2E040C5F60200016841F00D
:104A300001010160006800F0010006900698FFE7A0
:104A400080200A9003200B90002001900C90002001
:104A5000C5F602000AA903F07BFA019946F2385024
:104A6000C2F2004002902822C4F2020202600A222E
:104A700042608160C1604FF4806202614FF4006265
:104A800042614FF400528261C1610162416202F0F1
:104A900003FA18B1FFE7FEF7BBFAFFE7FFE70F984D
:104AA00046F23851C2F20041C1640F988863FFE7B3
:104AB000122000900022114603F076FD009803F0CA
:104AC00067FDFFE7FFE710B080BD000000000000B9
:104AD00080B588B00690059104920698016801207F
:104AE00042F20002C4F20202914201900CD0FFE7B0
:104AF000069800684DF60071CBF6FD710844B0FAD7
:104B000080F040090190FFE70198C10746F20030AC
:104B1000C5F6020000291CBF42F20030C4F20200B8
:104B200009F09AF902900698006809F0D1F9002876
:104B300040F0AF80FFE7FFE7069890F850000128AB
:104B400004D1FFE702208DF81F00ABE00699012099
:104B500081F85000FFE7FFE7029848B1FFE70298AD
:104B6000052805D0FFE70298092840F08780FFE775
:104B70000698FDF739FC8DF80F009DF80F0000280E
:104B800074D1FFE70698406D40F4807040F60161F3
:104B90008843069948650698006842F20011C4F2FD
:104BA0000201884206D1FFE742F20000C4F202008F
:104BB000009003E0069800680090FFE700980699CF
:104BC0000968884203D0FFE7029830B9FFE70699E9
:104BD000486D20F480104865FFE70698406DC004DA
:104BE000002806D5FFE70699886D20F00600886545
:104BF00003E0069900208865FFE70698C16C42F241
:104C0000C920C0F60000C8630698C16C42F2D130DA
:104C1000C0F6000008640698C16C42F2A130C0F6EC
:104C20000000C864069801681C200860FFE7069928
:104C3000002081F85000FFE706980168486840F0BE
:104C40001000486006990868C96A09F05DF906987D
:104C50000168C06C4031059A049B02F0D1FD8DF8CB
:104C60000F000698006809F07FF906E0FFE7069953
:104C7000002081F85000FFE7FFE709E001208DF8F0
:104C80000F00FFE70699002081F85000FFE7FFE7DB
:104C900003E002208DF80F00FFE79DF80F008DF86C
:104CA0001F00FFE79DF81F0008B080BD0000000056
:104CB00080B58AB0089003F04FFB0490089828B99B
:104CC000FFE701208DF8270000F0AABC089890F8B3
:104CD000350002280ED0FFE7089980204865FFE7DD
:104CE0000899002081F83400FFE701208DF82700A3
:104CF00000F096BC0898016801201022C4F202025C
:104D00009142039000F0A380FFE70898016801201A
:104D10002822C4F202029142039000F09880FFE73B
:104D20000898016801204022C4F2020291420390D7
:104D300000F08D80FFE70898016801205822C4F236
:104D400002029142039000F08280FFE70898016818
:104D500001207022C4F202029142039077D0FFE753
:104D60000898016801208822C4F20202914203904F
:104D70006DD0FFE7089801680120A022C4F202026A
:104D80009142039063D0FFE7089801680120B822A0
:104D9000C4F202029142039059D0FFE708980168DB
:104DA000012040F21042C4F20202914203904ED020
:104DB000FFE708980168012040F22842C4F202028D
:104DC0009142039043D0FFE708980168012040F228
:104DD0004042C4F202029142039038D0FFE70898A3
:104DE0000168012040F25842C4F20202914203904D
:104DF0002DD0FFE708980168012040F27042C4F20C
:104E000002029142039022D0FFE708980168012036
:104E100040F28842C4F202029142039017D0FFE7A9
:104E200008980168012040F2A042C4F202029142B7
:104E300003900CD0FFE7089800684FF64831CBF696
:104E4000FD710844B0FA80F040090390FFE7039831
:104E5000C00780B1FFE708980168086820F01E00CD
:104E6000086008980168486920F080004861089847
:104E70000068059009E008980168086820F00E00B5
:104E80000860089800680590FFE70898016801200D
:104E90001022C4F202029142029000F00381FFE767
:104EA0000898016801202822C4F20202914202906F
:104EB00000F0F880FFE70898016801204022C4F262
:104EC00002029142029000F0ED80FFE7089801682D
:104ED00001205822C4F202029142029000F0E280C6
:104EE000FFE70898016801207022C4F20202914293
:104EF000029000F0D780FFE708980168012088221F
:104F0000C4F202029142029000F0CC80FFE70898C0
:104F100001680120A022C4F202029142029000F036
:104F2000C180FFE7089801680120B822C4F202029C
:104F30009142029000F0B680FFE7089801680120D6
:104F400040F21042C4F202029142029000F0AA80A4
:104F5000FFE708980168012040F22842C4F20202EB
:104F60009142029000F09E80FFE7089801680120BE
:104F700040F24042C4F202029142029000F092805C
:104F8000FFE708980168012040F25842C4F202028B
:104F90009142029000F08680FFE7089801680120A6
:104FA00040F27042C4F20202914202907AD0FFE7CE
:104FB00008980168012040F28842C4F2020291423E
:104FC00002906FD0FFE708980168012040F2A042EC
:104FD000C4F202029142029064D0FFE7089801688F
:104FE000012040F2B842C4F202029142029059D02C
:104FF000FFE708980168012045F20842C5F6020261
:10500000914202904ED0FFE708980168012045F2D6
:105010001C42C5F602029142029043D0FFE7089875
:105020000168012045F23042C5F602029142029029
:1050300038D0FFE708980168012045F24442C5F6E0
:105040000202914202902DD0FFE7089801680120EA
:1050500045F25842C5F602029142029022D0FFE783
:1050600008980168012045F26C42C5F6020291429F
:10507000029017D0FFE708980168012045F28042AE
:10508000C5F60202914202900CD0FFE70898006832
:105090004AF66C31CAF2FD710844B0FA80F040095A
:1050A0000290FFE70298C00738B1FFE70898016E49
:1050B000086820F480700860FFE7089800681021F5
:1050C000C4F20201884200F08180FFE7089800687E
:1050D0002821C4F20201884278D0FFE708980068CE
:1050E0004021C4F20201884270D0FFE708980068AE
:1050F0005821C4F20201884268D0FFE7089800688E
:105100007021C4F20201884260D0FFE7089800686D
:105110008821C4F20201884258D0FFE7089800684D
:10512000A021C4F20201884250D0FFE7089800682D
:10513000B821C4F20201884248D0FFE7089800680D
:1051400040F21041C4F2020188423FD0FFE70898C4
:10515000006840F22841C4F20201884236D0FFE7DD
:105160000898006840F24041C4F2020188422DD004
:10517000FFE70898006840F25841C4F202018842F3
:1051800024D0FFE70898006840F27041C4F20201A1
:1051900088421BD0FFE70898006840F28841C4F2BB
:1051A0000201884212D0FFE70898006840F2A0414F
:1051B000C4F20201884209D0FFE70898006840F273
:1051C000B841C4F20201884207D1FFE7089801689C
:1051D000086820F00100086006E008980168086887
:1051E00020F001000860FFE7FFE705980068C007AE
:1051F000C8B1FFE703F0B0F80499401A062811D3AC
:10520000FFE70899202048650899032081F83500B8
:10521000FFE70899002081F83400FFE701208DF8AE
:105220002700FDE1E1E70898016801201022C4F29F
:1052300002029142019000F0A380FFE70898016804
:1052400001202822C4F202029142019000F09880CD
:10525000FFE70898016801204022C4F2020291424F
:10526000019000F08D80FFE7089801680120582226
:10527000C4F202029142019000F08280FFE7089898
:10528000016801207022C4F202029142019077D09D
:10529000FFE70898016801208822C4F202029142C7
:1052A00001906DD0FFE7089801680120A022C4F2A8
:1052B00002029142019063D0FFE708980168012043
:1052C000B822C4F202029142019059D0FFE7089837
:1052D0000168012040F21042C4F2020291420190A2
:1052E0004ED0FFE708980168012040F22842C4F23E
:1052F00002029142019043D0FFE708980168012023
:1053000040F24042C4F202029142019038D0FFE7DD
:1053100008980168012040F25842C4F2020291420A
:1053200001902DD0FFE708980168012040F27042FB
:10533000C4F202029142019022D0FFE7089801686E
:10534000012040F28842C4F202029142019017D03B
:10535000FFE708980168012040F2A042C4F202026F
:10536000914201900CD0FFE7089800684FF6483151
:10537000CBF6FD710844B0FA80F040090190FFE7D8
:105380000198C00760B1FFE70898806D0790089802
:10539000C06D00F01F013F208840079988600BE036
:1053A0000898806D06900898C06D00F01F010120DC
:1053B000884006994860FFE708980168012010229C
:1053C000C4F202029142009000F00381FFE70898C6
:1053D000016801202822C4F202029142009000F0EC
:1053E000F880FFE70898016801204022C4F2020219
:1053F0009142009000F0ED80FFE7089801680120DD
:105400005822C4F202029142009000F0E280FFE7CD
:105410000898016801207022C4F2020291420090B3
:1054200000F0D780FFE70898016801208822C4F2C5
:1054300002029142009000F0CC80FFE708980168DA
:105440000120A022C4F202029142009000F0C1802B
:10545000FFE7089801680120B822C4F202029142D5
:10546000009000F0B680FFE708980168012040F244
:105470001042C4F202029142009000F0AA80FFE7BD
:1054800008980168012040F22842C4F202029142C9
:10549000009000F09E80FFE708980168012040F22C
:1054A0004042C4F202029142009000F09280FFE775
:1054B00008980168012040F25842C4F20202914269
:1054C000009000F08680FFE708980168012040F214
:1054D0007042C4F20202914200907AD0FFE708982D
:1054E0000168012040F28842C4F202029142009019
:1054F0006FD0FFE708980168012040F2A042C4F293
:1055000002029142009064D0FFE7089801680120F0
:1055100040F2B842C4F202029142009059D0FFE733
:1055200008980168012045F20842C5F6020291423E
:1055300000904ED0FFE708980168012045F21C4218
:10554000C5F602029142009043D0FFE70898016837
:10555000012045F23042C5F602029142009038D057
:10556000FFE708980168012045F24442C5F60202AF
:10557000914200902DD0FFE708980168012045F284
:105580005842C5F602029142009022D0FFE70898E7
:105590000168012045F26C42C5F60202914200907A
:1055A00017D0FFE708980168012045F28042C5F650
:1055B0000202914200900CD0FFE7089800684AF67A
:1055C0006C31CAF2FD710844B0FA80F040090090D5
:1055D000FFE70098C007A0B1FFE70898416E806E12
:1055E00048600898C06E58B1FFE70898C16E086817
:1055F00020F4807008600898016F406F4860FFE7F2
:10560000FFE70899012081F83500FFE7089900209D
:1056100081F83400FFE7FFE700208DF82700FFE75F
:105620009DF827000AB080BD80B586B0049004982C
:1056300020B9FFE701208DF8170046E3049890F8A1
:105640003500022807D0FFE7049980204865012033
:105650008DF8170039E30498016801201022C4F284
:1056600002029142029000F0A380FFE704980168D3
:1056700001202822C4F202029142029000F0988098
:10568000FFE70498016801204022C4F2020291421F
:10569000029000F08D80FFE70498016801205822F5
:1056A000C4F202029142029000F08280FFE7049867
:1056B000016801207022C4F202029142029077D068
:1056C000FFE70498016801208822C4F20202914297
:1056D00002906DD0FFE7049801680120A022C4F277
:1056E00002029142029063D0FFE704980168012012
:1056F000B822C4F202029142029059D0FFE7049806
:105700000168012040F21042C4F20202914202906C
:105710004ED0FFE704980168012040F22842C4F20D
:1057200002029142029043D0FFE7049801680120F1
:1057300040F24042C4F202029142029038D0FFE7A8
:1057400004980168012040F25842C4F202029142DA
:1057500002902DD0FFE704980168012040F27042CA
:10576000C4F202029142029022D0FFE7049801683D
:10577000012040F28842C4F202029142029017D006
:10578000FFE704980168012040F2A042C4F202023F
:10579000914202900CD0FFE7049800684FF6483120
:1057A000CBF6FD710844B0FA80F040090290FFE7A3
:1057B0000298C007002800F09D80FFE704990420AC
:1057C00081F83500049800681021C4F20201884273
:1057D00000F08180FFE7049800682821C4F20201EC
:1057E000884278D0FFE7049800684021C4F20201A3
:1057F000884270D0FFE7049800685821C4F2020183
:10580000884268D0FFE7049800687021C4F2020162
:10581000884260D0FFE7049800688821C4F2020142
:10582000884258D0FFE704980068A021C4F2020122
:10583000884250D0FFE704980068B821C4F2020102
:10584000884248D0FFE70498006840F21041C4F253
:10585000020188423FD0FFE70498006840F22841E7
:10586000C4F20201884236D0FFE70498006840F293
:105870004041C4F2020188422DD0FFE7049800683D
:1058800040F25841C4F20201884224D0FFE7049854
:10589000006840F27041C4F2020188421BD0FFE769
:1058A0000498006840F28841C4F20201884212D094
:1058B000FFE70498006840F2A041C4F20201884268
:1058C00009D0FFE70498006840F2B841C4F2020131
:1058D000884207D1FFE704980168086820F00100BA
:1058E000086006E004980168086820F0010008607C
:1058F000FFE7E5E104980168086820F00E00086001
:10590000049800681021C4F20201884200F08180EE
:10591000FFE7049800682821C4F20201884278D089
:10592000FFE7049800684021C4F20201884270D069
:10593000FFE7049800685821C4F20201884268D049
:10594000FFE7049800687021C4F20201884260D029
:10595000FFE7049800688821C4F20201884258D009
:10596000FFE704980068A021C4F20201884250D0E9
:10597000FFE704980068B821C4F20201884248D0C9
:10598000FFE70498006840F21041C4F20201884227
:105990003FD0FFE70498006840F22841C4F20201BA
:1059A000884236D0FFE70498006840F24041C4F2D4
:1059B000020188422DD0FFE70498006840F2584168
:1059C000C4F20201884224D0FFE70498006840F244
:1059D0007041C4F2020188421BD0FFE704980068BE
:1059E00040F28841C4F20201884212D0FFE70498D5
:1059F000006840F2A041C4F20201884209D0FFE7EA
:105A00000498006840F2B841C4F20201884207D10C
:105A1000FFE704980168086820F00100086006E0CC
:105A200004980168086820F001000860FFE7049806
:105A3000016801201022C4F202029142019000F09C
:105A40000381FFE70498016801202822C4F20202C2
:105A50009142019000F0F880FFE70498016801206E
:105A60004022C4F202029142019000F0ED80FFE773
:105A70000498016801205822C4F202029142019068
:105A800000F0E280FFE70498016801207022C4F270
:105A900002029142019000F0D780FFE7049801686C
:105AA00001208822C4F202029142019000F0CC80D1
:105AB000FFE7049801680120A022C4F2020291428B
:105AC000019000F0C180FFE7049801680120B8222E
:105AD000C4F202029142019000F0B680FFE7049800
